:020000040800F2
:10000000E010002001010008EB0E0008F30C0008CE
:10001000E90E00086D010008CF1300080000000081
:100020000000000000000000000000003B1200087B
:100030006F01000800000000391200083D1200089E
:100040001B0100081B0100081B0100081B01000820
:100050001B0100081B0100081B0100081B01000810
:100060001B0100081B0100081B0100081B01000800
:100070001B0100081B0100081B0100081B010008F0
:100080001B0100081B0100081B0100081B010008E0
:100090001B0100081B0100081B0100081B010008D0
:1000A0001B0100081B0100081B0100081B010008C0
:1000B000D5120008E1120008ED1200081B0100082B
:1000C0001B0100081B0100081B0100081B010008A0
:1000D0001B0100081B0100081B0100081B01000890
:1000E0001B0100081B0100081B010008DFF80CD0F1
:1000F00000F02AF800480047C1140008E010002072
:100100000648804706480047FEE7FEE7FEE7FEE7B1
:10011000FEE7FEE7FEE7FEE7FEE7FEE78D120008DA
:10012000ED000008D2B201E000F8012B491EFBD21D
:1001300070470022F6E710B513460A4604461946F2
:10014000FFF7F0FF204610BD064C074D06E0E068C3
:1001500040F0010394E8070098471034AC42F6D30E
:10016000FFF7C8FFA0230008C0230008FEE7704780
:100170007047000070B5044600F008F90546601CA1
:1001800002D004480078044400F000F9401BA0426B
:10019000FAD370BD100000202DE9F84FDFF8B891B8
:1001A000002409F1040A0AF1040B23460F270BF17E
:1001B000040EC9E00125A5402A40AA427DD1674E20
:1001C000D1F804C0ACEB0608B44532D014DCBCF165
:1001D000030F3AD009DCBCF1000F2AD0BCF1010FAB
:1001E0001CD0BCF1020F31D11DE0BCF1110F17D0B2
:1001F000BCF1120F2AD119E0B8F5881F19D006DC1E
:10020000B8F5803F15D0B8F5801F1FD111E0B8F5C3
:10021000001F0ED0B8F5041F18D10AE0CB6815E016
:10022000CB681B1D12E0CB6808330FE0CB680C33A2
:100230000CE08B682BB1012B4FF0080303D0456114
:1002400004E0042302E0056100E00023FF2A01D856
:10025000064601E000F104064FEA840501D9A5F144
:100260002005D6F8008007FA05FC28EA0C0803FAF6
:1002700005F548EA0508C6F800804D68ED0062D52E
:10028000374DAE6946F00106AE61AD6924F0030654
:1002900005F001050095334D06EB050CDCF8085020
:1002A000A607360F07FA06F825EA0805DFF8B88032
:1002B000404503D14FF0000817E044E0DFF8AC8080
:1002C000404502D14FF001080FE0DFF8A48040451F
:1002D00002D14FF0020808E0DFF89880404502D1D3
:1002E0004FF0030801E04FF0040808FA06F848EA66
:1002F0000508CCF808804D68D9F80060ED034D463C
:1003000001D5164300E096432E604D68DAF8006090
:10031000AD03554601D5164300E096432E604D6867
:10032000DBF80060ED025D4601D5164300E0964320
:100330002E604D68DEF80060AD02754601D51643AB
:1003400000E096432E60641C0D682A46E5407FF469
:1003500031AFBDE8F88F000000040140000011102B
:10036000001002400000014000080140000C014064
:1003700000100140001401408068084000D00120B6
:1003800070470AB1016170470904FBE701488068C2
:100390007047000010000020024881680278114474
:1003A0008160704710000020074810B5016841F0D7
:1003B00010010160032000F075F8002000F006F83D
:1003C00000F024F8002010BD0020024070B50D4D53
:1003D00004464FF47A712878B1FBF0F00A490968B5
:1003E000B1FBF0F000F0CCFA48B9102C07D2002293
:1003F0002146501E00F036F800206C6070BD0120D0
:1004000070BD0000100000201C0000200C4808B542
:10041000816941F001018161816901F0010100916F
:10042000C16941F08051C161C06900F08050009005
:100430000448416821F0E06141F00071416008BD6D
:100440000010024000000140002809DB00F01F02FC
:10045000012191404009800000F1E020C0F8001126
:1004600070470000F0B40E4B1B680C46C3F3022328
:10047000C3F10705042D00D90425191D072901D250
:10048000002300E0DB1E012606FA05F1491E21408B
:1004900099409E40761E16403143F0BC00F098BF54
:1004A0000CED00E0064900F0070208684FF6FF0374
:1004B000184040EA0220034A1043086070470000D9
:1004C0000CED00E00000FA052DE9F0470F460500AD
:1004D00061D0434E306800F00700B84209D230685E
:1004E00020F0070038433060306800F00700B84261
:1004F00051D128683B4C810712D5400703D560686D
:1005000040F4E06060602878000703D5606840F43C
:10051000605060606068A96820F0F0000843606087
:100520002878C00728D06868012810D021680228E0
:1005300010D0890700292EDA616821F003010143F8
:100540006160FFF723FF804641F288390DE02168A2
:100550008903EFE78901EDE7FFF718FFA0EB08013A
:10056000494502D90320BDE8F0876068696800F05A
:100570000C00B0EB810FEFD1306800F00700B842FB
:100580000BD9306820F0070038433060306800F045
:100590000700B84201D00120E5E72878400705D5DB
:1005A0006068E96820F4E06008436060287800072C
:1005B00006D56068296920F4605040EAC100606097
:1005C00000F018F86168084AC1F30311515CC84093
:1005D0000649086006480068FFF7F8FE0020C2E7F9
:1005E0000020024000100240902300081C00002060
:1005F0001400002012A185B00FC98DE80F0014A0CF
:10060000144A006804905168134801F00C03042B4D
:1006100010D0082B0ED1C1F38343C9031DF803008A
:100620000AD5516804AAC1F34041515C0A4A5043BB
:10063000B0FBF1F005B0704708494843FAE7000005
:1006400002030405060708090A0B0C0D0E0F101013
:10065000010200000010024000127A0000093D0073
:100660002DE9F84F040070D02078C04DC00749D064
:100670006868C0F38100012807D06868C0F3810072
:10068000022809D16868C00306D52868800339D5D7
:1006900060680028E7D035E06068B0F5803F0BD097
:1006A00010B1B0F5A02F11D0286820F48030286058
:1006B000286820F4802002E0286840F48030286018
:1006C000606890B1FFF762FE06460AE0286840F4D1
:1006D00080202860F0E700BFFFF758FE801B6428E9
:1006E00073D828688003F7D50CE0FFF74FFE064665
:1006F00005E000BFFFF74AFE801B6428F0D8286899
:100700008003F7D420789A4E80074FF001094FF00C
:10071000000839D5686810F00C0F07D06868C0F37E
:100720008100022809D16868C00306D428688007C0
:1007300014D52069012808D110E02069B0B1C6F8AD
:100740000090FFF723FE074605E00AE1FFF71EFED3
:10075000C01B0228C4D828688007F7D528686169BB
:1007600020F0F80040EAC10028600DE0C6F80080E3
:10077000FFF70CFE074604E0FFF708FEC01B022847
:1007800023D828688007F7D4207800072CD579482B
:10079000A169D9B1C0F80090FFF7F8FD074604E061
:1007A000FFF7F4FDC01B02280FD8686A8007F7D551
:1007B00071484FF4FA510068B0FBF1F0009000BFAF
:1007C0000098411E0091FAD20EE080E0C0F800804F
:1007D000FFF7DCFD074604E0FFF7D8FDC01B022849
:1007E00075D8686A8007F7D42078400760D5E86933
:1007F0000027C00008D4E86940F08050E861E8694B
:10080000012700F0805000905C480168C90513D4AE
:100810000168834641F480710160FFF7B7FD8246AD
:1008200006E000BFFFF7B2FDA0EB0A0064284ED837
:10083000DBF80000C005F5D5E06801280AD008B152
:10084000052813D0286A20F001002862286A20F0C9
:10085000040002E0286A40F001002862E06841F2EA
:10086000883B98B1FFF792FD82460BE0286A40F082
:1008700004002862EEE700BFFFF788FDA0EB0A0145
:1008800059455AD8286A8007F6D50CE0FFF77EFD57
:10089000824605E0FFF77AFDA0EB0A0159454CD8E6
:1008A000286A8007F6D41FB1E86920F08050E8611B
:1008B000E06988B36968C1F38101022944D0022844
:1008C000C6F8608004D0FFF761FD044638E034E0EC
:1008D000FFF75CFD074604E0FFF758FDC01B022848
:1008E0002BD828688001F7D4206AB0F5803F05D165
:1008F0006868A16820F4003008436860D4E9080102
:100900000843696821F4741108436860C6F8609070
:10091000FFF73CFD044606E025E000BFFFF736FD8B
:10092000001B022809D828688001F7D51BE000BF0A
:10093000FFF72CFD001B022802D90320BDE8F88F29
:1009400028688001F4D40EE00128F7D06868226A94
:1009500000F48031914204D1616A00F47010884241
:1009600001D00120EAE70020E8E700000010024083
:1009700000004242800442421C00002000700040FF
:1009800010B5401EB0F1807F01D3012010BD4FF0A3
:10099000E02460610F21601700F01AFD0020A061C3
:1009A00007202061002010BD7047704770B590F897
:1009B0003C20012A19D0012400F83C4F0222427049
:1009C00050F83C3C5A689D6822F070060A684968F5
:1009D000324325F0800529435A6050F83C2C916041
:1009E000447000210170084670BD022070BD10B532
:1009F000040003D094F83D0010B107E0012010BDC1
:100A0000002084F83C00204600F00CF8022084F816
:100A10003D00211D206800F06FFC012084F83D009E
:100A2000002010BD08B501681D48B1F1804F11D0FC
:100A30001C4A91421DD1C16941F00201C161C069E6
:100A4000002200F00200009011461D20FFF70AFD71
:100A50001D201FE0C16941F00101C161C069002290
:100A600000F00100009011461C20FFF7FBFC1C2049
:100A700010E00D4A914211D1C16941F00401C161F8
:100A8000C069002200F00400009011461E20FFF70C
:100A9000E9FC1E20BDE80840FFF7D6BC08BD0000F9
:100AA00000100240000400400008004070B50446F9
:100AB00090F83C00012817D0012584F83C50022012
:100AC00084F83D002068826822F0770222F47F4299
:100AD00082600868502830D00DDC20284DD005DC1D
:100AE00098B310283BD148E0022070BD302844D094
:100AF000402834D139E0602828D0702806D0B0F5DD
:100B0000805F2CD0B0F5005F29D10AE0CB68D1E935
:100B10000121206800F026FC2068816841F07701FF
:100B200009E0CB68D1E90121206800F01BFC2068B6
:100B3000816841F48041816011E0CA684968206899
:100B400000F022FC5021206807E016E0CA684968DE
:100B5000206800F02AFC6021206800F00DFC84F879
:100B60003D50002084F83C0070BDCA684968206888
:100B700000F00AFC40212068EFE722680146104699
:100B8000EBE7704770B50446006801694FF0000557
:100B9000C943890715D4C168C943890711D4E91E1F
:100BA000016101202077206880698007204602D0FB
:100BB000FFF7E7FF04E000F098F8204600F096F811
:100BC000257720680169C943490717D4C168C9431B
:100BD000490713D46FF004010161022020772068D7
:100BE000806910F4407F204602D0FFF7CAFF04E07E
:100BF00000F07BF8204600F079F82577206801693D
:100C0000C943090716D4C168C943090712D46FF054
:100C100008010161042020772068C0698007204610
:100C200002D0FFF7AEFF04E000F05FF8204600F0CE
:100C30005DF8257720680169C943C90617D4C168E2
:100C4000C943C90613D46FF0100101610820207751
:100C50002068C06910F4407F204602D0FFF791FF62
:100C600004E000F042F8204600F040F825772068C4
:100C70000169C943C90708D1C168C943C90704D17B
:100C8000891E0161204600F032F820680169C943DD
:100C9000090609D4C168C943090605D46FF080016B
:100CA00001612046FFF780FE20680169C9434906BB
:100CB00009D4C168C943490605D46FF040010161F8
:100CC000204600F015F820680169C94389060BD455
:100CD000C168C943890607D46FF02001016120462D
:100CE000BDE87040FFF761BE70BD70477047704748
:100CF0007047FEE72DE9F04385B000242A480094B0
:100D0000019402940394816941F004018161816935
:100D100001F004010491816941F008018161806959
:100D2000DFF8888000F0080004900122802140460E
:100D3000FFF727FBDFF87890012240F683614846F1
:100D4000FFF71FFB80270326012500970396CDE9B7
:100D5000015469464046FFF71FFA40F60340CDE9CB
:100D60000005CDE9024669464846FFF715FA4FF4FB
:100D7000E2408DE8310069464846FFF70DFACDE9BB
:100D80000075CDE9025669464846FFF705FA680244
:100D9000009001AA112082E8510069464846FFF7F9
:100DA000FBF905B0BDE8F0830010024000080140E7
:100DB000000C014010B586B0002416480094019440
:100DC0000294039404944FF08041059401603F2104
:100DD000C0E9011440F2E731C0E903148461FFF770
:100DE00006FE08B1FFF7C4F94FF480500090694641
:100DF0000848FFF75BFE08B1FFF7BAF9049404A9AD
:100E000004480594FFF7D2FD002801D0FFF7B0F9A0
:100E100006B010BD2000002010B586B00024174891
:100E2000009401940294039404941349059401607E
:100E30003F21C0E9011440F2E731C0E903148461A5
:100E4000FFF7D5FD08B1FFF793F94FF480500090FC
:100E500069460A48FFF72AFE08B1FFF789F90494AA
:100E600004A906480594FFF7A1FD002801D0FFF76B
:100E70007FF906B010BD00000004004060000020B3
:100E800010B586B00024174800940194029403948E
:100E900004941349059401603F21C0E9011440F214
:100EA000E731C0E903148461FFF7A1FD08B1FFF742
:100EB0005FF94FF48050009069460A48FFF7F6FD4D
:100EC00008B1FFF755F9049404A906480594FFF703
:100ED0006DFD002801D0FFF74BF906B010BD0000F2
:100EE00000080040A0000020FEE7704770B5002415
:100EF00004F1B000C0B2002100F062F9002102202C
:100F000000F05EF90021102000F05AF900250121BF
:100F1000002000F055F96D1CEDB2802DF7D3641C54
:100F2000E4B2082CE4D370BD10B50120FFF722F91C
:100F30004A4C012202212046FFF723FA0120FFF745
:100F400019F9002202212046FFF71BFA0120FFF7C2
:100F500011F9012202212046FFF713FA0120FFF7C1
:100F600009F90021AE2000F02BF90021022000F049
:100F700027F90021102000F023F90021402000F083
:100F80001FF90021812000F01BF90021CF2000F083
:100F900017F90021A12000F013F90021C82000F06A
:100FA0000FF90021A62000F00BF90021A82000F085
:100FB00007F900213F2000F003F90021D32000F0C1
:100FC000FFF80021084600F0FBF80021D52000F0D2
:100FD000F7F80021802000F0F3F80021D92000F07C
:100FE000EFF80021F12000F0EBF80021DA2000F00A
:100FF000E7F80021122000F0E3F80021DB2000F0E8
:10100000DFF80021402000F0DBF80021202000F074
:10101000D7F80021022000F0D3F800218D2000F045
:10102000CFF80021142000F0CBF80021A42000F01C
:10103000C7F80021A62000F0C3F80021AF2000F07F
:10104000BFF80021AF2000F0BBF8FFF74FFF0021F1
:10105000BDE81040084600F003B80000000C014055
:1010600010B50446B031C8B2002100F0A9F8102034
:1010700040EA1410002100F0A3F804F00F00BDE8CE
:10108000104040F00100002100F09AB82DE9FF5F08
:10109000824601980E999946164600F101084FF0D4
:1010A000000441BB57E000BF0AEB041B0BF0FF003C
:1010B0000199FFF7D5FF294809EB0401002500EB52
:1010C00041170121785D00F07BF86D1CEDB2102D09
:1010D000F7D308F0FF010BF0FF00FFF7C1FF002579
:1010E00078190121007C00F06BF86D1CEDB2102D19
:1010F000F6D3641CE4B2B442D6D3BDE8FF9F00BF70
:101100000AEB041B0BF0FF000199FFF7A9FF13493D
:1011100009EB0400002501EB40170121785DC04375
:10112000C0B200F04DF86D1CEDB2102DF5D308F0F3
:10113000FF010BF0FF00FFF793FF00257819012155
:10114000007CC043C0B200F03BF86D1CEDB2102D26
:10115000F4D3641CE4B2B442D2D3CEE7501D0008ED
:101160002DE9F04100260D468046A2F120047F289B
:1011700003D900208D1C8046EDB22946FFF770FF91
:101180000E4F00BF06EB04100121385C00F018F888
:10119000761C082EF6D36D1CE9B24046FFF760FFBF
:1011A0005FF0000505EB041038440121007A00F0DF
:1011B00007F86D1C082DF5D3BDE8F0816017000815
:1011C0002DE9F0471A4E054609B1012200E0002240
:1011D00001213046FFF7D5F8DFF858900022802132
:1011E0004846FFF7CEF800244FF480684FF40067BC
:1011F000002239463046FFF7C4F8280601D50122FF
:1012000000E0002241463046FFF7BBF80122394694
:101210003046FFF7B6F86806641C050EE4B2082CE9
:10122000E6D34846BDE8F04701228021FFF7A9B880
:10123000000C01400008014070477047FFF7ACB850
:1012400030B58FB028216846FEF773FF14210AA835
:10125000FEF76FFF022401200490009410200590F7
:1012600000254FF46010CDE9085007946846FFF759
:10127000F7F90AA90F2081E831006002CDE90D05D8
:1012800002210AA8FFF720F90FB030BD0D48016810
:1012900041F00101016041680B4A11404160016861
:1012A0000A4A11400160016821F48021016041680F
:1012B00021F4FE0141604FF41F0181600449C00325
:1012C00008607047001002400000FFF8FFFFF6FEC4
:1012D00008ED00E00148FFF755BC000020000020A9
:1012E0000148FFF74FBC0000600000200148FFF7F5
:1012F00049BC0000A0000020F0B50268164B174C56
:10130000174D4FF08047984205D0B84203D0A04215
:1013100001D0A84203D122F070064A6832439842B5
:1013200005D0B84203D0A04201D0A84203D122F494
:101330004074CA6822434C6922F080022243026052
:101340008A68C2620A688262984201D109690163AF
:1013500001214161F0BD0000002C0140000400406B
:101360000008004010B5846842EA032224F47F4458
:101370000A432243826010BD826822F070020A4351
:1013800042F007018160704710B5036A046A24F0D7
:1013900001040462846924F0F00444EA021423F096
:1013A0000A020A438461026210BD10B5036A23F089
:1013B000100303628369046A23F4704343EA023230
:1013C00024F0A00343EA01118261016210BDFEE72F
:1013D0000907090E002804DB00F1E02080F8001462
:1013E000704700F00F0000F1E02080F8141D7047F6
:1013F00002E008C8121F08C1002AFAD170477047DE
:10140000002001E001C1121F002AFBD1704700003B
:1014100010B500F021F8CC2000F0FCF8442000F0DA
:10142000F9F84FF4A570401EFDD200F015F8CC205D
:1014300000F0F0F8BE2000F0EDF800F07BF8054C6D
:10144000A07000F077F80007A178000E40EA1110B4
:10145000607010BD000000202DE9F0410122174FFF
:10146000560231463846FEF78CFF7722521EFDD2D7
:10147000002231463846FEF784FF41F20A742246C4
:10148000521EFDD2012231463846FEF77AFF4FF454
:10149000B3752846401EFDD231463846FEF76CFF34
:1014A0000128F9D0641EFDD2012231463846FEF7EC
:1014B00068FF6D1EFDD2BDE8F0810000000C014008
:1014C000FEF772FFFFF7BCFEFFF714FCFFF772FC9C
:1014D000FFF7A2FCFFF7D4FCFFF726FD00F062F84F
:1014E00042F21075B0FBF5F0114CA06000F05AF814
:1014F000B0FBF5F0A06000F055F8B0FBF5F042F25B
:1015000028360027C4F8080000F04CF8B0FBF5F0CE
:10151000A168401A00EB800080006060B04200D9F2
:101520006760FFF775FF207000F0A2F8ECE700009D
:10153000040000202DE9F041184C194E00254FF40D
:101540000077002239463046FEF71BFF1C20401E64
:10155000FDD2012239463046FEF713FF6220401EBD
:10156000FDD239463046FEF707FF0128207811D01A
:1015700040082070012239463046FEF702FF40F253
:101580001A20401EFDD26D1CEDB2082DD9D3207853
:10159000BDE8F081802141EA5000EAE70000002028
:1015A000000C01402DE9F041194D00228021284610
:1015B000FEF7E7FE0024AF1539462846FEF7DCFEAD
:1015C0000028F9D10026012280212846FEF7D9FE05
:1015D0006400002280212846FEF7D3FE39462846C3
:1015E000FEF7CAFE00B1641C761CF6B2182EEAD3D0
:1015F000012280212846FEF7C4FE84F40004002264
:1016000080212846FEF7BDFE2046BDE8F08100009F
:10161000000C01402DE9F041144F054600244FF421
:101620000076002231463846FEF7ABFE3520401EDC
:10163000FDD2E80701D0012200E000223146384601
:10164000FEF79FFE40F2CE20401EFDD20122314621
:101650003846FEF796FE6D083520401EFDD2641C0C
:10166000E4B2082CDDD3BDE8F0810000000C01409D
:10167000F8B5012600230422194620200096FFF722
:1016800005FD02220423114600200096FFF7FEFC10
:101690003A2202212020FFF763FD304D4FF47A718A
:1016A0000A246868B0FBF1F0B0FBF4F104FB11020E
:1016B000022128203032FFF753FD68686421B0FB17
:1016C000F1F0B0FBF4F104FB1102022130203032C2
:1016D000FFF746FD6868B0FBF4F0B0FBF4F104FBE3
:1016E0001102022138203032FFF73AFD6868B0FB62
:1016F000F4F104FB1102022140203032FFF730FDEB
:10170000672202214820FFF72BFD06230222042135
:1017100000200096FFF7BAFC3A2204212020FFF7B0
:101720001FFD2878B0FBF4F0B0FBF4F104FB1102CC
:10173000042128203032FFF713FD2878B0FBF4F1A4
:1017400004FB1102042130203032FFF709FDBDE80F
:10175000F840432204213820FFF702BD0400002096
:101760000000000000000000000000000000000079
:10177000000000F80000000000000033300000000E
:1017800000100C06100C0600000000000000000015
:1017900040C07840C0784000043F04043F04040087
:1017A000007088FC08300000001820FF211E000097
:1017B000F008F000E018000000211C031E211E00AC
:1017C00000F00888700000001E2123241927211032
:1017D00010160E00000000000000000000000000D5
:1017E000000000E01804020000000007182040007C
:1017F00000020418E000000000402018070000006C
:10180000404080F0804040000202010F01020200CF
:10181000000000F0000000000101011F01010100B3
:10182000000000000000000080B070000000000018
:1018300000000000000000000001010101010101A1
:101840000000000000000000003030000000000038
:10185000000000008060180400601806010000000D
:1018600000E010080810E000000F102020100F000A
:10187000001010F8000000000020203F2020000091
:1018800000700808088870000030282422213000E9
:1018900000300888884830000018202020110E00F1
:1018A0000000C02010F8000000070424243F24009A
:1018B00000F80888880808000019212020110E006F
:1018C00000E0108888180000000F112020110E0081
:1018D00000380808C83808000000003F0000000079
:1018E0000070880808887000001C222121221C003A
:1018F00000E010080810E0000000312222110F0063
:10190000000000C0C00000000000003030000000F7
:101910000000008000000000000080600000000067
:101920000000804020100800000102040810200080
:1019300040404040404040000404040404040400CB
:101940000008102040800000002010080402010060
:10195000007048080808F000000000303601000060
:10196000C030C828E810E0000718272423140B0013
:101970000000C038E0000000203C2302022738208D
:1019800008F8888888700000203F202020110E0071
:10199000C030080808083800071820202010080068
:1019A00008F808080810E000203F202020100F0051
:1019B00008F88888E8081000203F2020232018001D
:1019C00008F88888E8081000203F20000300000085
:1019D000C03008080838000007182020221E020026
:1019E00008F808000008F808203F210101213F20E5
:1019F000000808F8080800000020203F2020000010
:101A000000000808F8080800C08080807F000000FF
:101A100008F888C028180800203F20012638200038
:101A200008F8080000000000203F2020202030009F
:101A300008F8F800F8F80800203F003F003F2000B9
:101A400008F830C00008F808203F200007183F00C1
:101A5000E01008080810E0000F10202020100F00F0
:101A600008F808080808F000203F210101010000E3
:101A7000E01008080810E0000F18242438504F0028
:101A800008F8888888887000203F2000030C3020E8
:101A900000708808080838000038202121221C0026
:101AA000180808F8080818000000203F200000006F
:101AB00008F808000008F808001F202020201F0058
:101AC0000878880000C83808000007380E010000B8
:101AD000F80800F80008F800033C0700073C030082
:101AE000081868808068180820302C03032C3020E8
:101AF0000838C800C83808000000203F2000000057
:101B000010080808C83808002038262120201800AE
:101B1000000000FE020202000000007F4040400082
:101B2000000C30C000000000000000010638C000BA
:101B300000020202FE000000004040407F00000062
:101B40000000040202020400000000000000000087
:101B50000000000000000000808080808080808085
:101B6000000202040000000000000000000000006D
:101B700000008080808000000019242222223F2063
:101B800008F8008080000000003F112020110E00A6
:101B90000000008080800000000E11202020110035
:101BA000000000808088F800000E112020103F20E7
:101BB0000000808080800000001F2222222213006B
:101BC000008080F0888888180020203F20200000B6
:101BD0000000808080808000006B9494949360006B
:101BE00008F8008080800000203F210000203F2076
:101BF00000809898000000000020203F2020000076
:101C0000000000809898000000C08080807F000065
:101C100008F8000080808000203F24022D30200042
:101C2000000808F8000000000020203F20200000ED
:101C30008080808080808000203F20003F20003F07
:101C40008080008080800000203F210000203F2015
:101C50000000808080800000001F202020201F00C6
:101C6000808000808000000080FFA12020110E00F5
:101C70000000008080808000000E112020A0FF80E6
:101C8000808080008080800020203F212000010093
:101C900000008080808080000033242424241900E8
:101CA000008080E0808000000000001F20200000F5
:101CB0008080000000808000001F202020103F2036
:101CC000808080000080808000010E3008060100C6
:101CD00080800080008080800F300C030C300F006B
:101CE00000808000808080000020312E0E31200096
:101CF000808080000080808080818E7018060100C6
:101D000000808080808080000021302C22213000E3
:101D100000000000807C020200000000003F404004
:101D200000000000FF00000000000000FF000000B5
:101D30000002027C800000000040403F00000000E4
:101D4000000601010202040400000000000000007F
:101D500010226C0080FC04F404FE04F800FE000075
:101D60000404FE014027100F10670047807F000029
:101D7000202020BEAAAAAAAAAAAAAABF223020006E
:101D8000008080AFAAAAAAFFAAAAAAAF80800000FA
:101D900000022222322EA2622222910901000000BA
:101DA000000042221A43827E02020A1366000000EB
:101DB0002030AC633088C8A8998E88A8CC880000F1
:101DC000226722129240300F00003F4040417000D5
:101DD00008080AEAAAAAAAFEAAAAA9F9290C0800D0
:101DE0004040484B4A4A4A7F4A4A4A4B4860400072
:101DF000202020BEAAAAAAAAAAAAAABF22302000EE
:101E0000008080AFAAAAAAFFAAAAAAAF8080000079
:101E10001022640C8000FE9292929292FF020000C7
:101E20000404FE01407E42427E427E42427E4000E9
:101E30000000FC242424FCA5A6A4FC2434260400D1
:101E400040209F804242262A122A264240C040005B
:101E50000000000000000000000000000000000082
:101E60000000000000000000000000000000000072
:101E70000000000000000000000000000000000062
:101E80000000000000000000000000000000000052
:102390000000000000000000010203040607080915
:1023A000C02300080000002020000000F0130008F7
:1023B000E023000820000020C010000000140008E6
:1023C000000000000000000000000000000000000D
:1023D0000100000010000000000000000024F400D4
:04000005080000ED02
:00000001FF
